S01200006C61622033204750494F2E7372656341
S11300000C9434000C943E000C943E000C943E007E
S11300100C943E000C943E000C943E000C943E0064
S11300200C943E000C943E000C943E000C943E0054
S11300300C943E000C943E000C943E000C943E0044
S11300400C943E000C943E000C943E000C943E0034
S11300500C943E000C943E000C943E000C943E0024
S11300600C943E000C943E0011241FBECFEFD8E048
S1130070DEBFCDBF0E9481000C94C9000C94000027
S1130080FC01408121E030E002C0220F331F6A9559
S1130090E2F7242B20830895FC01808121E030E0E5
S11300A002C0220F331F6A95E2F7922F909589239D
S11300B080838181282B21830895FC01908121E094
S11300C030E002C0220F331F6A95E2F720952923FE
S11300D020830895FC01408121E030E002C0220F1A
S11300E0331F6A95E2F7242B20830895FC012081B5
S11300F081E090E002C0880F991F6A95E2F782239D
S1130100089565E084E290E00E94400065E085E2A5
S113011090E00E945D0060E087E290E00E94400071
S113012060E088E290E00E945D0060E08BE290E095
S11301300E944C0026C02FEF89E698E121508040B0
S11301409040E1F700C0000065E085E290E00E9485
S11301506A0060E088E290E00E945D002FEF89E68B
S113016098E1215080409040E1F700C0000065E034
S113017085E290E00E945D0060E088E290E00E94E9
S11301806A0060E089E290E00E947600882399F298
S1090190F8CFF894FFCF44
S9030000FC
