S00E000030362D6C63642E7372656350
S11300000C9434000C9451000C9451000C94510045
S11300100C9451000C9451000C9451000C94510018
S11300200C9451000C9467010C9451000C945100F1
S11300300C9451000C9451000C9451000C945100F8
S11300400C9403020C9451000C9451000C94510034
S11300500C9451000C9451000C9451000C945100D8
S11300600C9451000C94510011241FBECFEFD8E022
S1130070DEBFCDBF11E0A0E0B1E0E8E6F5E002C0EC
S113008005900D92AA34B107D9F721E0AAE4B1E0B2
S113009001C01D92AF34B207E1F70E94FA000C943C
S11300A0B2020C940000299A85E08A95F1F70000C9
S11300B029980895CF93C82F662311F0289A01C078
S11300C02898549A559A569A579A5F985E985D98CC
S11300D05C98CC230CF45F9AC6FD5E9AC5FD5D9ACC
S11300E0C4FD5C9A0E9453005F985E985D985C988A
S11300F0C3FD5F9AC2FD5E9AC1FD5D9AC0FD5C9A24
S11301000E9453005C9A5D9A5E9A5F9A87EB9BE02B
S11301100197F1F700C00000CF91089560E00E94BC
S11301205A00089561E00E945A000895611104C0C4
S113013080580E948E00089580540E948E00089575
S113014081E00E948E00089561E00E945A000895A3
S1130150CF93DF93EC012196FC018081882329F061
S11301600E94A40089918111FBCFDF91CF91089562
S1130170CF93C82F209A559A219A549A559A569AF1
S1130180579A8FEF99EF0197F1F700C000005D9A3D
S11301905C9A0E9453008FE19EE40197F1F700C03E
S11301A000000E9453008FEF90E00197F1F700C028
S11301B000000E9453008FEF90E00197F1F700C018
S11301C000005C980E9453008FEF90E00197F1F7D4
S11301D000C0000088E20E948E0088E00E948E0029
S11301E00E94A00086E00E948E008C2F0E948E0048
S11301F0CF9108958CE00E94B80060E081E00E94F5
S1130200960088E391E00E94A80061E081E00E94EA
S1130210960082E60E94A40061E08BE00E949600B2
S113022083E60E94A40080E40E948E00C0E0D1E036
S113023008E311E089910E949200C017D107D1F719
S113024080E80E948E0080E00E94A40061E080E0CB
S11302500E94960081E00E94A40061E081E00E9477
S1130260960082E00E94A40061E082E00E94960071
S113027083E00E94A40061E083E00E94960084E091
S11302800E94A40061E084E00E94960085E00E9440
S1130290A40061E085E00E94960086E00E94A4002C
S11302A0E1EBF0E0808187608083E0E7F0E080812B
S11302B08160808385B58D7F85BD85B5856085BD6D
S11302C0EEE6F0E08081816080837894FFCF1F9216
S11302D00F920FB60F9211242F933F934F935F9376
S11302E06F937F938F939F93AF93BF93EF93FF93FA
S11302F0CF93DF9300D0CDB7DEB780E290E29A834C
S1130300898380914E018F5F863018F480934E016B
S113031065C010924E0180914D018F5F8A3018F4B0
S113032080934D0126C010924D0180914C018F5F46
S113033080934C014AE0BE016F5F7F4F889FC001EC
S113034011240E947D0260E08BE00E949600CE01A1
S113035001960E94A80080914C018C3350F060E01B
S11303608BE00E94960084E491E00E94A800109221
S11303704C0160E087E00E94960080914D01805D11
S11303800E94A40080914C018A30C8F460E084E0AB
S11303900E94960080E30E94A40080914C014AE0F0
S11303A0BE016F5F7F4F90E00E947D0260E085E0B8
S11303B00E949600CE0101960E94A8000FC04AE058
S11303C0BE016F5F7F4F90E00E947D0260E084E099
S11303D00E949600CE0101960E94A8000F900F90F3
S11303E0DF91CF91FF91EF91BF91AF919F918F9149
S11303F07F916F915F914F913F912F910F900FBE1D
S11304000F901F9018951F920F920FB60F92112400
S11304102F933F934F935F936F937F938F939F9308
S1130420AF93BF93EF93FF9380914B018F5F8093C2
S11304304B01863018F010924B010EC08230F9F057
S113044028F4882349F0813089F046C0843049F18A
S1130450F8F0853079F140C061E080914A010E9452
S1130460960087E491E00E94A80036C061E0809184
S11304704A010E94960082E00E94A4002DC061E01F
S113048080914A010E94960083E00E94A40024C047
S113049061E080914A010E94960084E00E94A400D9
S11304A01BC061E080914A010E94960085E00E9491
S11304B0A40012C061E080914A010E94960086E087
S11304C00E94A40080914A018F5F8A3019F08093C2
S11304D04A0102C010924A01FF91EF91BF91AF917E
S11304E09F918F917F916F915F914F913F912F9148
S11304F00F900FBE0F901F901895BB274A3031F410
S1130500992322F4BDE2909581959F4F0C94890222
S1130510BB27FB015527AA27880F991FAA1FA417D9
S113052010F0A41B83955051B9F7A05DAA3308F0CD
S1130530A95DA193009779F7B111B1931192CB0101
S11305400C94A202DC01FC01672F71917723E1F77F
S1130550329704C07C916D9370836291AE17BF078C
S10B0560C8F30895F894FFCFDD
S1130568070E1C181C0E07031B1B1B00111B0E0077
S1130578101010101010101018181818181818182F
S11305881C1C1C1C1C1C1C1C1E1E1E1E1E1E1E1E8F
S11305981F1F1F1F1F1F1F1F30303A30302E3020DF
S10D05A82020610030202020000014
S9030000FC
