S00E000030382D6932432E73726563A3
S11300000C9434000C9451000C9451000C94510045
S11300100C9451000C9451000C9451000C94510018
S11300200C9451000C9451000C9451000C94510008
S11300300C9451000C9481000C9451000C945100C8
S11300400C9477000C9451000C9422010C945001F0
S11300500C9451000C9451000C9451000C945100D8
S11300600C9451000C94510011241FBECFEFD8E022
S1130070DEBFCDBF11E0A0E0B1E0ECEDF3E002C0E3
S113008005900D92AE31B107D9F721E0AEE1B1E0B0
S113009001C01D92A336B207E1F70E9453000C94ED
S11300A0EC010C9400000E94D40087E690E00E94CA
S11300B07A0185B58D7F85BD85B5856085BDEEE604
S11300C0F0E0808181608083E1E8F0E080818D7FD1
S11300D08083808185608083EFE6F0E080818160A9
S11300E08083789480E091E00E94A801FFCF1F9262
S11300F00F920FB60F9211240F900FBE0F901F9006
S113010018951F920F920FB60F9211242F933F93BD
S11301104F935F936F937F938F939F93AF93BF930B
S1130120EF93FF93CF93DF9300D01F92CDB7DEB749
S113013080E390E39A83898380E38B838CE50E9438
S1130140E30082E00E9401010E940C014AE0BE012A
S11301506F5F7F4F90E00E94B701CE0101960E942D
S1130160A8010E9417014AE0BE016F5F7F4F90E033
S11301700E94B701CE0101960E94A8010F900F9032
S11301800F90DF91CF91FF91EF91BF91AF919F912C
S11301908F917F916F915F914F913F912F910F902C
S11301A00FBE0F901F90189587B18F7C87B988B1C7
S11301B0806388B9E9EBF0E080818C7F808388E9F3
S11301C08093B800089594EA9093BC00ECEBF0E0BF
S11301D090819923ECF78093BB0084E88093BC0062
S11301E0ECEBF0E080818823ECF79091B900987FE4
S11301F0983129F081E0903419F480E0089580E08A
S113020008958093BB0084E88093BC00ECEBF0E09D
S113021080818823ECF7089584EC8093BC00ECEB98
S1130220F0E080818823ECF78091BB00089584E896
S11302308093BC00ECEBF0E080818823ECF78091A4
S1130240BB0008951F920F920FB60F9211242F93A3
S11302508F939F93EF93FF938091C0002091C600EA
S11302608C71E0912001EF5FEF7190911F01E9170C
S113027039F0E0932001F0E0ED5DFE4F208301C0F2
S113028082E090911E01892B80931E01FF91EF91D2
S11302909F918F912F910F900FBE0F901F901895E3
S11302A01F920F920FB60F9211248F939F93EF9387
S11302B0FF939091220180912101981769F0E091B8
S11302C02101EF5FEF71E0932101F0E0ED5BFE4F60
S11302D080818093C60005C0E1ECF0E080818F7DD1
S11302E08083FF91EF919F918F910F900FBE0F909C
S11302F01F90189510922201109221011092200152
S113030010921F0199231CF422E02093C0009078DE
S11303109093C5008093C40088E98093C10086E06F
S11303208093C2000895209122012F5F2F71909134
S113033021012917E1F3E22FF0E0ED5BFE4F80830A
S113034020932201E1ECF0E08081806280830895B3
S1130350CF93DF93EC018881882331F021960E94AA
S1130360930189918111FBCFDF91CF910895BB2730
S11303704A3031F4992322F4BDE2909581959F4F40
S11303800C94C301BB27FB015527AA27880F991F8B
S1130390AA1FA41710F0A41B83955051B9F7A05DB0
S11303A0AA3308F0A95DA193009779F7B111B1932D
S11303B01192CB010C94DC01DC01FC01672F7191DB
S11303C07723E1F7329704C07C916D937083629137
S10F03D0AE17BF07C8F30895F894FFCFE0
S11303DC0D0A5363616E204932432D627573206696
S11103EC6F7220646576696365733A0D0A00CA
S9030000FC
