:100000000C9434000C943E000C943E000C943E0082
:100010000C943E000C943E000C943E000C943E0068
:100020000C943E000C943E000C943E000C943E0058
:100030000C943E000C943E000C943E000C943E0048
:100040000C943E000C943E000C943E000C943E0038
:100050000C943E000C943E000C943E000C943E0028
:100060000C943E000C943E0011241FBECFEFD8E04C
:10007000DEBFCDBF0E9440000C9461000C940000D4
:10008000259A2D98389A409857985F9A4F99FECFA5
:100090002FEF89E698E1215080409040E1F700C0C1
:1000A0000000409A2D9A2FEF89E698E12150804078
:1000B0009040E1F700C000002D9840984F99FECF86
:0600C000E5CFF894FFCF2C
:00000001FF
